{"abi":[{"type":"constructor","inputs":[],"stateMutability":"nonpayable"},{"type":"function","name":"addNode","inputs":[],"outputs":[],"stateMutability":"nonpayable"},{"type":"function","name":"currentPrices","inputs":[{"name":"","type":"string","internalType":"string"}],"outputs":[{"name":"","type":"uint256","internalType":"uint256"}],"stateMutability":"view"},{"type":"function","name":"getQuorum","inputs":[],"outputs":[{"name":"","type":"uint256","internalType":"uint256"}],"stateMutability":"view"},{"type":"function","name":"hasSubmitted","inputs":[{"name":"","type":"string","internalType":"string"},{"name":"","type":"uint256","internalType":"uint256"},{"name":"","type":"address","internalType":"address"}],"outputs":[{"name":"","type":"bool","internalType":"bool"}],"stateMutability":"view"},{"type":"function","name":"isNode","inputs":[{"name":"","type":"address","internalType":"address"}],"outputs":[{"name":"","type":"bool","internalType":"bool"}],"stateMutability":"view"},{"type":"function","name":"nodePrices","inputs":[{"name":"","type":"string","internalType":"string"},{"name":"","type":"uint256","internalType":"uint256"},{"name":"","type":"address","internalType":"address"}],"outputs":[{"name":"","type":"uint256","internalType":"uint256"}],"stateMutability":"view"},{"type":"function","name":"nodes","inputs":[{"name":"","type":"uint256","internalType":"uint256"}],"outputs":[{"name":"","type":"address","internalType":"address"}],"stateMutability":"view"},{"type":"function","name":"owner","inputs":[],"outputs":[{"name":"","type":"address","internalType":"address"}],"stateMutability":"view"},{"type":"function","name":"removeNode","inputs":[],"outputs":[],"stateMutability":"nonpayable"},{"type":"function","name":"rounds","inputs":[{"name":"","type":"string","internalType":"string"}],"outputs":[{"name":"id","type":"uint256","internalType":"uint256"},{"name":"totalSubmissionCount","type":"uint256","internalType":"uint256"},{"name":"lastUpdatedAt","type":"uint256","internalType":"uint256"}],"stateMutability":"view"},{"type":"function","name":"submitPrice","inputs":[{"name":"coin","type":"string","internalType":"string"},{"name":"price","type":"uint256","internalType":"uint256"}],"outputs":[],"stateMutability":"nonpayable"},{"type":"event","name":"NodeRegistered","inputs":[{"name":"_node","type":"address","indexed":false,"internalType":"address"}],"anonymous":false},{"type":"event","name":"NodeUnregistered","inputs":[{"name":"_node","type":"address","indexed":false,"internalType":"address"}],"anonymous":false},{"type":"event","name":"PriceUpdated","inputs":[{"name":"coin","type":"string","indexed":true,"internalType":"string"},{"name":"price","type":"uint256","indexed":false,"internalType":"uint256"},{"name":"roundId","type":"uint256","indexed":false,"internalType":"uint256"}],"anonymous":false}],"bytecode":{"object":"0x608060405234801561001057600080fd5b50336000806101000a81548173ffffffffffffffffffffffffffffffffffffffff021916908373ffffffffffffffffffffffffffffffffffffffff160217905550611681806100606000396000f3fe608060405234801561001057600080fd5b50600436106100a95760003560e01c8063c36a2ad611610071578063c36a2ad61461017c578063d0d3f5ba146101ac578063d8d0f038146101b6578063e07c60e1146101e6578063eeb530d1146101f0578063fd52762c14610220576100a9565b806301750152146100ae5780631c53c280146100de5780638da5cb5b1461010e57806396af87531461012c578063c26c12eb1461015e575b600080fd5b6100c860048036038101906100c39190610e0c565b61023c565b6040516100d59190610e54565b60405180910390f35b6100f860048036038101906100f39190610ea5565b61025c565b6040516101059190610ee1565b60405180910390f35b61011661029b565b6040516101239190610ee1565b60405180910390f35b61014660048036038101906101419190611042565b6102bf565b6040516101559392919061109a565b60405180910390f35b6101666102ff565b60405161017391906110d1565b60405180910390f35b61019660048036038101906101919190611042565b610347565b6040516101a391906110d1565b60405180910390f35b6101b4610375565b005b6101d060048036038101906101cb91906110ec565b61061d565b6040516101dd91906110d1565b60405180910390f35b6101ee610665565b005b61020a600480360381019061020591906110ec565b6107e6565b6040516102179190610e54565b60405180910390f35b61023a6004803603810190610235919061115b565b610838565b005b60026020528060005260406000206000915054906101000a900460ff1681565b6001818154811061026c57600080fd5b906000526020600020016000915054906101000a900473ffffffffffffffffffffffffffffffffffffffff1681565b60008054906101000a900473ffffffffffffffffffffffffffffffffffffffff1681565b6003818051602081018201805184825260208301602085012081835280955050505050506000915090508060000154908060010154908060020154905083565b6000600360018054905010156103185760039050610344565b600360028060018054905061032d91906111e6565b6103379190611240565b61034191906112c5565b90505b90565b6006818051602081018201805184825260208301602085012081835280955050505050506000915090505481565b600260003373ffffffffffffffffffffffffffffffffffffffff1673ffffffffffffffffffffffffffffffffffffffff16815260200190815260200160002060009054906101000a900460ff16610401576040517f08c379a00000000000000000000000000000000000000000000000000000000081526004016103f890611353565b60405180910390fd5b6000600260003373ffffffffffffffffffffffffffffffffffffffff1673ffffffffffffffffffffffffffffffffffffffff16815260200190815260200160002060006101000a81548160ff02191690831515021790555060005b6001805490508110156105e3573373ffffffffffffffffffffffffffffffffffffffff166001828154811061049457610493611373565b5b9060005260206000200160009054906101000a900473ffffffffffffffffffffffffffffffffffffffff1673ffffffffffffffffffffffffffffffffffffffff16036105d05760018080805490506104ec91906113a2565b815481106104fd576104fc611373565b5b9060005260206000200160009054906101000a900473ffffffffffffffffffffffffffffffffffffffff166001828154811061053c5761053b611373565b5b9060005260206000200160006101000a81548173ffffffffffffffffffffffffffffffffffffffff021916908373ffffffffffffffffffffffffffffffffffffffff1602179055506001805480610596576105956113d6565b5b6001900381819060005260206000200160006101000a81549073ffffffffffffffffffffffffffffffffffffffff021916905590556105e3565b80806105db90611405565b91505061045c565b507fb1864577e4f285436a80ebc833984755393e2450d58622a65fb4fce87ea3573a336040516106139190610ee1565b60405180910390a1565b60048380516020810182018051848252602083016020850120818352809550505050505060205281600052604060002060205280600052604060002060009250925050505481565b600260003373ffffffffffffffffffffffffffffffffffffffff1673ffffffffffffffffffffffffffffffffffffffff16815260200190815260200160002060009054906101000a900460ff16156106f2576040517f08c379a00000000000000000000000000000000000000000000000000000000081526004016106e990611499565b60405180910390fd5b6001600260003373ffffffffffffffffffffffffffffffffffffffff1673ffffffffffffffffffffffffffffffffffffffff16815260200190815260200160002060006101000a81548160ff0219169083151502179055506001339080600181540180825580915050600190039060005260206000200160009091909190916101000a81548173ffffffffffffffffffffffffffffffffffffffff021916908373ffffffffffffffffffffffffffffffffffffffff1602179055507f564728e6a7c8edd446557d94e0339d5e6ca2e05f42188914efdbdc87bcbbabf6336040516107dc9190610ee1565b60405180910390a1565b600583805160208101820180518482526020830160208501208183528095505050505050602052816000526040600020602052806000526040600020600092509250509054906101000a900460ff1681565b600260003373ffffffffffffffffffffffffffffffffffffffff1673ffffffffffffffffffffffffffffffffffffffff16815260200190815260200160002060009054906101000a900460ff166108c4576040517f08c379a00000000000000000000000000000000000000000000000000000000081526004016108bb90611505565b60405180910390fd5b60006003836040516108d6919061159f565b90815260200160405180910390206000015490506005836040516108fa919061159f565b9081526020016040518091039020600082815260200190815260200160002060003373ffffffffffffffffffffffffffffffffffffffff1673ffffffffffffffffffffffffffffffffffffffff16815260200190815260200160002060009054906101000a900460ff16156109a4576040517f08c379a000000000000000000000000000000000000000000000000000000000815260040161099b90611602565b60405180910390fd5b816004846040516109b5919061159f565b9081526020016040518091039020600083815260200190815260200160002060003373ffffffffffffffffffffffffffffffffffffffff1673ffffffffffffffffffffffffffffffffffffffff168152602001908152602001600020819055506001600584604051610a27919061159f565b9081526020016040518091039020600083815260200190815260200160002060003373ffffffffffffffffffffffffffffffffffffffff1673ffffffffffffffffffffffffffffffffffffffff16815260200190815260200160002060006101000a81548160ff021916908315150217905550600383604051610aaa919061159f565b90815260200160405180910390206001016000815480929190610acc90611405565b9190505550610ad96102ff565b600384604051610ae9919061159f565b90815260200160405180910390206001015410610b0b57610b0a8382610b10565b5b505050565b60008060005b600180549050811015610c8257600060018281548110610b3957610b38611373565b5b9060005260206000200160009054906101000a900473ffffffffffffffffffffffffffffffffffffffff169050600586604051610b76919061159f565b9081526020016040518091039020600086815260200190815260200160002060008273ffffffffffffffffffffffffffffffffffffffff1673ffffffffffffffffffffffffffffffffffffffff16815260200190815260200160002060009054906101000a900460ff1615610c6e57600486604051610bf5919061159f565b9081526020016040518091039020600086815260200190815260200160002060008273ffffffffffffffffffffffffffffffffffffffff1673ffffffffffffffffffffffffffffffffffffffff1681526020019081526020016000205484610c5d9190611240565b93508280610c6a90611405565b9350505b508080610c7a90611405565b915050610b16565b506000811115610d105760008183610c9a91906112c5565b905080600686604051610cad919061159f565b90815260200160405180910390208190555084604051610ccd919061159f565b60405180910390207f6e838f2a03741f5f2aff5480963b672fb0dd8430a4dc75db9b67ce009733c9fe8286604051610d06929190611622565b60405180910390a2505b600384604051610d20919061159f565b90815260200160405180910390206000016000815480929190610d4290611405565b91905055506000600385604051610d59919061159f565b90815260200160405180910390206001018190555042600385604051610d7f919061159f565b90815260200160405180910390206002018190555050505050565b6000604051905090565b600080fd5b600080fd5b600073ffffffffffffffffffffffffffffffffffffffff82169050919050565b6000610dd982610dae565b9050919050565b610de981610dce565b8114610df457600080fd5b50565b600081359050610e0681610de0565b92915050565b600060208284031215610e2257610e21610da4565b5b6000610e3084828501610df7565b91505092915050565b60008115159050919050565b610e4e81610e39565b82525050565b6000602082019050610e696000830184610e45565b92915050565b6000819050919050565b610e8281610e6f565b8114610e8d57600080fd5b50565b600081359050610e9f81610e79565b92915050565b600060208284031215610ebb57610eba610da4565b5b6000610ec984828501610e90565b91505092915050565b610edb81610dce565b82525050565b6000602082019050610ef66000830184610ed2565b92915050565b600080fd5b600080fd5b6000601f19601f8301169050919050565b7f4e487b7100000000000000000000000000000000000000000000000000000000600052604160045260246000fd5b610f4f82610f06565b810181811067ffffffffffffffff82111715610f6e57610f6d610f17565b5b80604052505050565b6000610f81610d9a565b9050610f8d8282610f46565b919050565b600067ffffffffffffffff821115610fad57610fac610f17565b5b610fb682610f06565b9050602081019050919050565b82818337600083830152505050565b6000610fe5610fe084610f92565b610f77565b90508281526020810184848401111561100157611000610f01565b5b61100c848285610fc3565b509392505050565b600082601f83011261102957611028610efc565b5b8135611039848260208601610fd2565b91505092915050565b60006020828403121561105857611057610da4565b5b600082013567ffffffffffffffff81111561107657611075610da9565b5b61108284828501611014565b91505092915050565b61109481610e6f565b82525050565b60006060820190506110af600083018661108b565b6110bc602083018561108b565b6110c9604083018461108b565b949350505050565b60006020820190506110e6600083018461108b565b92915050565b60008060006060848603121561110557611104610da4565b5b600084013567ffffffffffffffff81111561112357611122610da9565b5b61112f86828701611014565b935050602061114086828701610e90565b925050604061115186828701610df7565b9150509250925092565b6000806040838503121561117257611171610da4565b5b600083013567ffffffffffffffff8111156111905761118f610da9565b5b61119c85828601611014565b92505060206111ad85828601610e90565b9150509250929050565b7f4e487b7100000000000000000000000000000000000000000000000000000000600052601160045260246000fd5b60006111f182610e6f565b91506111fc83610e6f565b9250817fffffffffffffffffffffffffffffffffffffffffffffffffffffffffffffffff0483118215151615611235576112346111b7565b5b828202905092915050565b600061124b82610e6f565b915061125683610e6f565b9250827fffffffffffffffffffffffffffffffffffffffffffffffffffffffffffffffff0382111561128b5761128a6111b7565b5b828201905092915050565b7f4e487b7100000000000000000000000000000000000000000000000000000000600052601260045260246000fd5b60006112d082610e6f565b91506112db83610e6f565b9250826112eb576112ea611296565b5b828204905092915050565b600082825260208201905092915050565b7f4e6f646520646f6573206e6f7420657869737400000000000000000000000000600082015250565b600061133d6013836112f6565b915061134882611307565b602082019050919050565b6000602082019050818103600083015261136c81611330565b9050919050565b7f4e487b7100000000000000000000000000000000000000000000000000000000600052603260045260246000fd5b60006113ad82610e6f565b91506113b883610e6f565b9250828210156113cb576113ca6111b7565b5b828203905092915050565b7f4e487b7100000000000000000000000000000000000000000000000000000000600052603160045260246000fd5b600061141082610e6f565b91507fffffffffffffffffffffffffffffffffffffffffffffffffffffffffffffffff8203611442576114416111b7565b5b600182019050919050565b7f4e6f646520616c72656164792065786973747300000000000000000000000000600082015250565b60006114836013836112f6565b915061148e8261144d565b602082019050919050565b600060208201905081810360008301526114b281611476565b9050919050565b7f4e6f742061206e6f646500000000000000000000000000000000000000000000600082015250565b60006114ef600a836112f6565b91506114fa826114b9565b602082019050919050565b6000602082019050818103600083015261151e816114e2565b9050919050565b600081519050919050565b600081905092915050565b60005b8381101561155957808201518184015260208101905061153e565b83811115611568576000848401525b50505050565b600061157982611525565b6115838185611530565b935061159381856020860161153b565b80840191505092915050565b60006115ab828461156e565b915081905092915050565b7f416c7265616479207375626d697474656420666f72207468697320726f756e64600082015250565b60006115ec6020836112f6565b91506115f7826115b6565b602082019050919050565b6000602082019050818103600083015261161b816115df565b9050919050565b6000604082019050611637600083018561108b565b611644602083018461108b565b939250505056fea26469706673582212206bc311c6bcec4f1506ca6f70ccf916e64de9c8310992d49e07d573e4ac8e5de164736f6c634300080d0033","linkReferences":{}},"methodIdentifiers":{"addNode()":"e07c60e1","currentPrices(string)":"c36a2ad6","getQuorum()":"c26c12eb","hasSubmitted(string,uint256,address)":"eeb530d1","isNode(address)":"01750152","nodePrices(string,uint256,address)":"d8d0f038","nodes(uint256)":"1c53c280","owner()":"8da5cb5b","removeNode()":"d0d3f5ba","rounds(string)":"96af8753","submitPrice(string,uint256)":"fd52762c"},"id":19}